:020000040800F2
:1000000088120020A10100086B2400082D2100089F
:1000100069240008E1070008752D000800000000B1
:100020000000000000000000000000006F24000835
:10003000B9080008000000006D24000871240008C1
:10004000BB010008BB010008BB010008BB010008A0
:10005000BB010008BB010008BB010008BB01000890
:10006000BB010008BB010008BB010008BB01000880
:10007000E5070008BB010008F1070008BB01000804
:10008000FD07000809080008BB010008BB010008C3
:10009000BB010008BB010008BB010008BB01000850
:1000A000BB010008BB010008BB010008BB01000840
:1000B000BB010008BB010008BB010008BB01000830
:1000C000BB010008BB010008BB010008BB01000820
:1000D000BB010008812C00088D2C0008CD2C0008E5
:1000E000BB010008BB010008BB010008BB01000800
:1000F000BB010008BB010008BB010008BB010008F0
:10010000BB010008BB010008BB010008BB010008DF
:10011000BB010008BB010008BB010008BB010008CF
:10012000BB010008BB010008BB010008BB010008BF
:10013000BB010008BB010008BB010008BB010008AF
:10014000BB010008BB010008BB010008BB0100089F
:10015000BB010008BB010008BB010008212D0008FD
:10016000BB010008BB010008BB010008BB0100087F
:10017000BB010008BB010008BB0100080000000033
:10018000BB010008BB010008DFF810D000F016FB2F
:100190000048004745400008AFF300808812002067
:1001A0000648804706480047FEE7FEE7FEE7FEE711
:1001B000FEE7FEE7FEE7FEE7FEE7FEE709250008AB
:1001C000890100082DE9F05F0546002092469B4614
:1001D00088460646814640241BE02846414647465D
:1001E000224600F054FA53465A46C01A914110D3A1
:1001F00011461846224600F03BFA2D1A67EB01081B
:100200004F4622460120002100F032FA17EB000988
:100210004E41201EA4F10104DFDC484631462A4647
:100220004346BDE8F09F40EA01039B0703D009E085
:1002300008C9121F08C0042AFAD203E011F8013BD2
:1002400000F8013B521EF9D27047D2B201E000F82B
:10025000012B491EFBD270470022F6E710B513466A
:100260000A4604461946FFF7F0FF204610BD2DE967
:10027000FE4F804681EA0300C00F0C46009021F03B
:10028000004123F00045B8EB0200A94105D24046E9
:10029000214690461C460B46024623F00040104380
:1002A00047D0270DC7F30A00C3F30A510290401A42
:1002B000019040286BDAC3F3130040F4801B0098D0
:1002C000924620B10023D2EB030A63EB0B0B01989B
:1002D0005946C0F14002504600F0CAF906460D46A4
:1002E00050465946019A00F0E2F910EB08006141CE
:1002F000002487EA115284EAE7731A4340D0009A37
:1003000062B3019A012A4FEA075215DC001B61EB28
:1003100002014FF0004202EA0752CDE90042001C00
:1003200041F5801132462B4600F0E2F903B0BDE8FA
:10033000F08F40462146F9E7001B61EB0201001CEB
:1003400041F5801300185B412018A2F5001747EB18
:10035000030140EAD570B6196D4111E06D084FEA0E
:10036000360645EAC0754FEA0752001B61EB0201F1
:10037000001C41F5801149084FEA30000019514135
:1003800032462B4603B0BDE8F04F00F0A2B900980A
:10039000012240000023D0EB020263EBE0730098DF
:1003A00021464FEAE074B8EB000061EB0401E9E795
:1003B00083F000435BE781F0004158E72DE9FE4FF1
:1003C00081EA030404F0004421F0004100944FF05E
:1003D000000B23F0004350EA01045ED052EA03040C
:1003E0005BD0C3F30A54C1F30A552C44A4F2F3348E
:1003F0000194A0FB0254C1F3130141F48011C3F333
:10040000130343F4801301FB024400FB034E840AF0
:10041000970A44EA815447EA8357A4FB0768029588
:100420008D0A05FB07854FEA932C04FB0C54270526
:10043000029D4FEA065847EA1637B5EB08056EEB02
:10044000070C870E920E47EA811742EA8312A7FB38
:100450000201B6EB0B0164EB00042B0D43EA0C33F5
:100460005E1844EB1C50DA465146E7FB0201C5F327
:1004700013044FEA0B3343EA14534FEA0432019C4E
:1004800043EA0603A4F10C040294009CCDE900B4F5
:1004900000F02EF903B0BDE8F08F00200146F9E727
:1004A0002DE9F04D81EA030404F0004B21F00045F2
:1004B00014464FF0000A23F0004150EA050220D014
:1004C00054EA01021DD0C5F30A570246C5F31303CF
:1004D000C1F31300C1F30A5640F4801543F48013AE
:1004E000A7EB0608101BD64608F2FD3873EB050093
:1004F00002D308F1010801E092185B41B8F1000F46
:1005000003DA00200146BDE8F08D00204FF4801191
:10051000064684460EE0171B73EB050705D3121B36
:1005200063EB050306434CEA010C49084FEA30002F
:1005300092185B4150EA0107EDD152EA030012D054
:1005400082EA040083EA0501084305D0101BAB4191
:1005500006D20122002306E000224FF0004302E011
:100560006FF0010253101AEB06004CEB085110EB30
:100570000A0041EB0B01BDE8F04D00F0AAB80EB542
:10058000C10F80EAE0700844CA07002140F23343FB
:100590008DE80E000A460B4600F0AAF803B000BD35
:1005A0000EB540F2334102910021CDE900110A4617
:1005B0000B4600F09DF803B000BDC1F30A5210B520
:1005C000C1F3130140F2FF3341F480119A4201DA82
:1005D000002010BD40F233439A42A2F2334203DCC2
:1005E000524200F054F810BD904010BD00F000429F
:1005F00030F000400AD0C10D01F56071C0F3160063
:1006000042EA0151C20840071143704700200146E9
:100610007047000030B5041E71F1000404DB4FF098
:100620000044404264EB0101141E73F1000405DB39
:100630001C464FF00043524263EB0403994208BF4B
:10064000904230BD30B50B460146002020220124E7
:1006500009E021FA02F59D4205D303FA02F5491B90
:1006600004FA02F52844151EA2F10102F1DC30BDA6
:10067000202A04DB203A00FA02F100207047914062
:10068000C2F1200320FA03F3194390407047202A57
:1006900004DB203A21FA02F00021704721FA02F32C
:1006A000D040C2F120029140084319467047202AE9
:1006B00006DBCB17203A41FA02F043EAE07306E08A
:1006C00041FA02F3D040C2F120029140084319469A
:1006D000704710B5141E73F1000408DA401C41F194
:1006E000000192185B411A4301D120F0010010BDB6
:1006F0002DE9F04D92469B4611B1B1FA81F202E02C
:10070000B0FA80F220329046FFF7B2FF04460F465F
:1007100040EA0A0041EA0B0153465A46084313D007
:10072000114653EA010019D0C8F140025046FFF7C4
:10073000AEFF05460E46504659464246FFF798FF23
:10074000084305D0012004E020463946BDE8F08D7D
:100750000020054346EAE0762C4337430A986305B8
:10076000E40AA0EB08000022FD0A44EA47540A30DC
:1007700002D500200146E9E7010510196941DDE9CC
:10078000084500196941BDE8F04DA2E7C1F30A52DE
:10079000C1F3130140F2FF3341F480119A4202DAAF
:1007A00000200146704740F233439A42A2F233429E
:1007B00002DC5242FFF76BBFFFF75ABF064C074DF2
:1007C00006E0E06840F0010394E807009847103421
:1007D000AC42F6D3FFF7DCFC305900085059000852
:1007E000FEE70000014800F027B90000C80D002016
:1007F000014800F021B90000280E0020014800F057
:100800001BB90000080D0020014800F015B90000D8
:10081000680D002001681823CAB2103AB2FBF3F247
:10082000054B6FF30901032A9B5CC36500D9091DC1
:1008300081650846704700000854000810B501465D
:1008400000208B698A6A4FF0C07453B1B3F5005F22
:1008500015D072B1012A0CD0022A0AD0032A09D17C
:1008600004E01AB1012A06D0022A03D1C96AC901DB
:1008700000D5012010BDC96AA142FAD010BD002ADE
:10088000F7D0012AF2D0022AF3D0032AF3D010BD08
:1008900030B50468256825F4802525600468636008
:1008A0008368402B036803D099600068C26030BD44
:1008B0009A600068C16030BD70470000F0B40E4C13
:1008C000DDE90457069E2070FD206070A170100ABB
:1008D000E07022716371280EA071280CE071280A63
:1008E00020726572A7726B20E67220732146F0BCFD
:1008F0000D22024801F0DCBB5C000020780C0020D7
:100900001C4B0122112918702DD2DFE801F0090BD0
:100910000F112C132C1517191B1D2C1F2327210019
:100920001F2000E02020587002221CE02120FAE75E
:100930002420F8E72720F6E73120F4E73320F2E718
:100940003520F0E73620EEE73720ECE73A20EAE7FB
:100950003B20E8E7422058706C2002E043205870AA
:100960007A20987003226B20985402490248521C46
:1009700001F09EBB5C000020780C002072B6FEE700
:100980002DE9F0410446876D00F0D8FA064694F848
:1009900035000025022806D08020606584F8345098
:1009A0000120BDE8F0812068016821F01601016096
:1009B0002068416921F080014161206C08B9A06C78
:1009C00020B12068016821F00801016020680168F9
:1009D00021F0010101600CE000F0B0FA801B052855
:1009E00007D920206065032084F8350084F834504E
:1009F000D7E720680068C007EED194F85C103F206C
:100A00008840B860012084F8350084F83450002014
:100A1000C7E790F83510022903D0802141650120F5
:100A20007047052180F835100068016821F0010148
:100A300001600020704700002DE9F84304464FF0A4
:100A40000009CDF8009063484FF41651A56D006879
:100A5000B0FBF1F72E6894F85C10082000FA01F161
:100A600031420FD021680A6852070BD50A6822F07C
:100A700004020A6094F85C108840A860606D40F041
:100A80000100606594F85C104FF0010808FA01F06D
:100A9000304208D021684969090604D5A860606D14
:100AA00040F00200606594F85C10042088403042F9
:100AB00008D021680968890704D5A860606D40F0F6
:100AC0000400606594F85C1010208840304218D013
:100AD00021680968090714D5A860206801684903DE
:100AE00004D50068000308D5A16C07E00168C905BA
:100AF00003D4016821F008010160216C09B120468E
:100B0000884794F85C1020208840304231D021681A
:100B10000968C9062DD5A86094F835000528206815
:100B2000016806D0490347D5006800031DD4616CF5
:100B30001CE021F0160101602068416921F080016C
:100B40004161206C08B9A06C20B12068016821F0D7
:100B50000801016094F85C103F208840A86084F888
:100B6000358084F83490216D1FE0E16B09B1204697
:100B70008847606D00282BD0606DC00714D0052019
:100B800084F835002068016821F0010101600098B7
:100B9000401C0090B84203D820680068C007F6D116
:100BA00084F8358084F83490E16C002910D001B0CD
:100BB0002046BDE8F04308470168C905D5D401685F
:100BC00021F01001016084F8358084F83490CCE77E
:100BD000BDE8F883540000202DE9F041044600F000
:100BE000ADF906465CB1022084F83500002584F892
:100BF00034502068016821F0010101600DE00120FE
:100C0000BDE8F08100F09AF9801B052805D9202065
:100C10006065032084F83500F2E720680068C007AB
:100C2000F0D12268116820480140D4E9010318433B
:100C3000D4E903363343184363691843A36918435F
:100C4000E3691843236A18430843616A042903D1FE
:100C5000D4E90B1319430843106020684069666AA1
:100C600020F0070130460E43012704280CD1A06A6A
:100C70000643E06A40B12046FFF7E0FD20B1402086
:100C8000606584F83570BAE7206846612046FFF752
:100C9000C1FD94F85C203F2191408160656584F836
:100CA00035700020ACE700003F8010F02DE9F041E6
:100CB0000446866D90F83400002501280DD00120EF
:100CC00084F8340094F835700020012F07D084F8A0
:100CD000340002252846BDE8F0810220FBE7022708
:100CE00084F8357060652046FFF7D2FD94F85C10FB
:100CF0003F208840B0602068016841F01601016023
:100D0000206C20B12068016841F008010160206872
:100D1000016841F001010160DCE7000070B50446A4
:100D200000F00CF90546601C02D004480078044429
:100D300000F004F9401BA042FAD370BD4800002027
:100D40002DE9F84FDFF8BCA10022012503264FF062
:100D50000F090AF1040BAAF1040E00BF0B6805FA93
:100D600002F42340A34270D10F7907F00307012F4B
:100D700001D0022F16D187684FEA420806FA08FC14
:100D800027EA0C07D1F80CC00CFA08FC4CEA070C57
:100D9000C0F808C04768A7430C79C4F30014944016
:100DA0003C4344600C79E443A4070AD0C4684FEA8A
:100DB000420C06FA0CF7BC438F6807FA0CF727437E
:100DC000C7600C7904F00304022C12D1D40800EBA4
:100DD000840CDCF820405707FF0E09FA07F824EAD4
:100DE0000804D1F8108008FA07F848EA0408CCF89B
:100DF000208004684FEA420C06FA0CF7BC430F79D6
:100E000007F0030707FA0CF7274307604C6814F450
:100E1000403F70D03C4C276847F4804727602468E7
:100E200022F0030704F480440094384C07EB040CD0
:100E3000DCF8084897074FEA177809FA08F7BC4327
:100E4000334FB84202D1002724E054E0314FB8427A
:100E500001D101271EE0304FB84201D1022719E02D
:100E60002E4FB84201D1032714E02D4FB84201D1D3
:100E700004270FE02B4FB84201D105270AE02A4F83
:100E8000B84201D1062705E0284FB84201D1072713
:100E900000E0082707FA08F72743CCF80878DAF8C3
:100EA00000405746D1F804C09C435FEACC2C00D5E3
:100EB0001C433C60DBF800405F46D1F804C09C4313
:100EC0005FEA8C2C00D51C433C60DEF8004077467E
:100ED000D1F804C09C435FEA8C3C00D51C433C60C5
:100EE000084F083F3C68D1F804C09C435FEACC3C03
:100EF00000D51C433C60521C102AFFF42FAFBDE804
:100F0000F88F0000083C01404438024000300140A6
:100F1000000002400004024000080240000C0240B1
:100F2000001002400014024000180240001C024061
:100F30000AB1816170470904FBE70000014880683D
:100F40007047000048000020024881680278114480
:100F500081607047480000200B4810B5016841F4DB
:100F600000710160016841F480610160016841F431
:100F700080710160032000F06FF80F2000F006F888
:100F800000F024F8002010BD003C024070B50D4D6B
:100F900004464FF47A712878B1FBF0F00A490968E9
:100FA000B1FBF0F000F00CFB48B9102C07D2002286
:100FB0002146501E00F030F800206C6070BD01200A
:100FC00070BD000048000020540000200A4808B509
:100FD000016841F480410160006800F480400090A5
:100FE0000548001F016841F080510160006800F071
:100FF0008050009008BD000044380240002809DB02
:1010000000F01F02012191404009800000F1E02022
:10101000C0F8001170470000F0B40E4B1B680C467E
:10102000C3F30223C3F10705042D00D90425191DBC
:10103000072901D2002300E0DB1E012606FA05F194
:10104000491E214099409E40761E16403143F0BC17
:1010500001F0D6BE0CED00E0064900F0070208687A
:101060004FF6FF03184040EA0220034A104308608D
:10107000704700000CED00E00000FA052DE9F04794
:101080000E46050065D0DFF81481D8F80000F7B2ED
:1010900000F00700B04207D288F80070D8F80000CE
:1010A00000F00700B04254D128683D4C810712D5AA
:1010B000400703D5206840F4E050206028780007FE
:1010C00003D5206840F4604020602068A96820F0C3
:1010D000F000084320602878C0072DD030496868A8
:1010E0000839012812D0022813D0032811D009682A
:1010F000890700292DDA216821F0030101432160CD
:10110000FFF71CFF814641F2883A0EE00968890327
:10111000EFE709688901ECE7FFF710FFA0EB090191
:10112000514502D90320BDE8F0872068696800F0C6
:101130000C00B0EB810FEFD1D8F80010404601F061
:101140000701B14207D90770006800F00700B042FC
:1011500001D00120E7E72878400705D52068E96835
:1011600020F4E050084320602878000706D5206866
:10117000296920F4604040EAC100206000F038F89E
:101180002168084AC1F30311515CC8400649086050
:1011900006480068FFF7FAFE0020C4E7003C024062
:1011A0000838024010540008540000204C00002071
:1011B0000448054900680968044AC1F38221515C6A
:1011C000C8407047540000200838024020540008EE
:1011D0000448054900680968044AC1F34231515C7A
:1011E000C8407047540000200838024020540008CE
:1011F000154810B5006810F00C02144813D01449BB
:10120000042A0FD0082A0ED10F4C241F226823680D
:1012100002F03F025B0207D52068C0F38810A0FBF4
:10122000010106E0084610BD2168C1F38811A1FB49
:1012300000010023FEF7C6FF2168C1F30141491CEC
:101240004900B0FBF1F010BD083802400024F40062
:1012500040787D012DE9F84F04006ED02078DFF84A
:101260004C93C007A9F104054AD009F104000168B4
:10127000C1F38101012908D00068C0F38100022870
:101280000AD1D9F80000400206D52868800337D576
:1012900060680028E1D033E06068B0F5803F10D08E
:1012A000B0F5A02F286810D020F48030286028687E
:1012B00020F4802028606068A8B1FFF73FFE064652
:1012C0000DE0286840F48030F4E740F48020286086
:1012D000F7E700BFFFF732FE801B642873D8286849
:1012E0008003F7D50CE0FFF729FE064605E000BFB6
:1012F000FFF724FE801B6428F0D828688003F7D409
:101300002078DFF8AC8280074FF0000A3ED5A7486E
:10131000001D016811F00C0F08D00068C0F38100B7
:1013200002280BD1D9F80000400207D428688007B2
:1013300016D5E068012800D112E033E1E068B8B1C9
:101340000120C8F80000FFF7F9FD064605E000BFE0
:10135000FFF7F4FD801B0228C0D828688007F7D566
:101360002868216920F0F80040EAC10028600DE0FB
:10137000C8F800A0FFF7E2FD064604E0FFF7DEFD37
:10138000801B02281FD828688007F7D42078000720
:1013900022D5864F87486169703771B1012101609C
:1013A000FFF7CCFD064604E0FFF7C8FD801B0228CE
:1013B00009D838688007F7D50EE0C0F800A0FFF71D
:1013C000BDFD064605E082E0FFF7B8FD801B022860
:1013D0007DD838688007F7D42078400768D5DFF8D3
:1013E000CCB100270BF13C0BDBF80000C0000BD4A4
:1013F000DBF8001041F08051CBF80010DBF8000062
:10140000012700F0805000906B4E3068C00510D46A
:10141000306840F480703060FFF790FD009005E088
:10142000FFF78CFD0099401A022850D83068C0059B
:10143000F6D55E4EA0686C3601280FD005283068BE
:1014400010D020F001003060306820F004003060DF
:10145000A068B8B1FFF772FD00900FE0306840F06F
:101460000100F4E740F004003060F7E7FFF766FDA5
:101470000099411A41F28830814266D8306880076D
:10148000F4D50EE0FFF75AFD009007E0FFF756FD98
:101490000099411A41F28830814256D8306880075D
:1014A000F4D42FB1DBF8001021F08051CBF80010FC
:1014B000A069C8B33D49091D0968C1F3810102292A
:1014C0004AD00228504607D0C8F8600000E03CE04F
:1014D000FFF734FD04463BE04746C8F86000FFF7DD
:1014E0002DFD064605E000BFFFF728FD801B022802
:1014F0002BD828688001F7D4D4E907010843A16AF2
:101500002E4A490802EB0141626A41EA821108430E
:1015100094F82C1040EA0161C9F8001001203866E7
:10152000FFF70CFD044606E03EE000BFFFF706FDB6
:10153000001B022809D828688001F7D534E000BFD5
:10154000FFF7FCFC001B022802D90320BDE8F88F3E
:1015500028688001F4D427E00128F7D0D9F80000EA
:10156000E26900F4800191421CD1226A00F03F013F
:10157000914217D147F6C071626A0140B1EB821FF8
:1015800010D1A26A4FF0FF3300F4403103EB520256
:10159000B1EB024F06D194F82C1000F07060B0EB64
:1015A000016F01D00120D1E70020CFE704380240CD
:1015B00000004742800E4742007000400000FFFFDD
:1015C00010B5401EB0F1807F01D3012010BD4FF057
:1015D000E02460610F21601701F012FC0020A0617F
:1015E00007202061002010BD70B590F83C20012A32
:1015F00032D0012480F83C40022280F83D2003686C
:101600005A689D6822F070060A6832435A60134B8C
:1016100002689A4214D0B2F1804F11D0104B9A4216
:101620000ED0104B9A420BD00F4B9A4208D00F4B62
:101630009A4205D00E4B9A4202D00E4B9A4204D1E8
:10164000496825F080031943916080F83D400021EE
:1016500080F83C10084670BD022070BD00000140BB
:101660000004004000080040000C0040000401405D
:10167000004001400018004010B5040003D094F869
:101680003D0010B107E0012010BD002084F83C00AF
:10169000204600F01FF8022084F83D00211D20683C
:1016A00000F03AFF012084F8460084F83E0084F8F8
:1016B0003F0084F8400084F8410084F8420084F838
:1016C000430084F8440084F8450084F83D0000207D
:1016D00010BD000008B50C4A01680C48914207D1C2
:1016E000016841F002010160006800F0020009E0B9
:1016F000074A914207D1016841F004010160006886
:1017000000F00400009008BD000400404038024092
:101710000008004070B5044690F83C000025012800
:1017200017D0012684F83C60022084F83D00206830
:10173000826822F0770222F47F4282600868502893
:1017400038D00DDC20284FD005DC90B3102811D103
:101750004AE0022070BD302846D040280AD13BE044
:1017600060282FD070280DD0B0F5805F03D0B0F581
:10177000005F12D0012584F83D60002084F83C0011
:10178000284670BDCB68D1E90121206800F03DFFFB
:101790002068816841F0770109E0CB68D1E9012137
:1017A000206800F032FF2068816841F48041816048
:1017B000E1E719E0CA684968206800F0FBFF5021A2
:1017C000206806E0CA684968206801F004F86021D2
:1017D000206800F024FFCEE7CA684968206800F05E
:1017E000E9FF40212068F4E7226801461046F0E74F
:1017F00010B586B0044614216846FEF72DFD236817
:10180000174C002017490222A34210D10B6843F065
:1018100001030B600968CDE9022001F00101059187
:10182000C021CDE9001269460F48049213E00F4C25
:10183000A34212D10B6843F008030B60096801F062
:10184000080105914FF4E0410091CDE90120CDE977
:10185000030269460648FFF773FA06B010BD0000A0
:101860000004004030380240000002400008004000
:10187000000C024070B5044690F83C0000260D466E
:1018800001280FD0012084F83C006AB1042A1DD041
:10189000082A2FD00C2A3FD00126002084F83C00D3
:1018A000304670BD022070BD206800F0C1FE206887
:1018B000816941F0080181612068816921F004019A
:1018C0008161206881692A69114311E0206800F074
:1018D000DFFE2068816941F40061816120688169CF
:1018E00021F480618161206881692A6941EA0221CD
:1018F0008161D2E7206800F001FF2068C16941F0F2
:101900000801C1612068C16921F00401C16120683A
:10191000C1692A69114311E0206800F023FF2068A3
:10192000C16941F40061C1612068C16921F480612D
:10193000C1612068C1692A6941EA0221C161ACE73D
:1019400010B5040003D094F83D0010B107E0012069
:1019500010BD002084F83C00204600F01EF8022054
:1019600084F83D00211D206800F0D6FD012084F898
:10197000460084F83E0084F83F0084F8400084F874
:10198000410084F8420084F8430084F8440084F85D
:10199000450084F83D00002010BD704710B5044696
:1019A000022249B104290ED0082913D094F841002D
:1019B000012816D0012010BD94F83E000128F9D16D
:1019C00084F83E200FE094F83F000128F2D184F81B
:1019D0003F2008E094F840000128EBD184F8402033
:1019E00001E084F841200122206800F001FE164940
:1019F0002068164A884201D0904203D1436C43F4D8
:101A0000004343642068884213D0B0F1804F10D067
:101A10000F4988420DD00F4988420AD00E498842AA
:101A200007D0904205D00D49884202D00C49884227
:101A300004D1816801F00701062903D0016841F053
:101A400001010160002010BD0000014000040140C0
:101A50000004004000080040000C0040004001402D
:101A600000180040704710B504460068406994F8BB
:101A70004110C0F3C010212911D180B12068143069
:101A800050E8001F21F0800140E80012002AF5D143
:101A9000A06B08B1FEF774FF204600F07AFF2068C3
:101AA000406994F84210C0F38010222911D180B10E
:101AB0002068143050E8001F21F0400140E8001277
:101AC000002AF5D1E06B08B1FEF75AFF204600F07E
:101AD00039FF002010BD7047F8B50168044608685A
:101AE000CA684B6910F00F0F4FF0000559D003F092
:101AF000010602F49077374365D0C10705D0D105C0
:101B000003D5616C41F001016164410705D5D90736
:101B100003D0616C41F002016164810705D5D907EA
:101B200003D0616C41F004016164010707D502F044
:101B30002001314303D0616C41F008016164616CA4
:101B400000293AD0800604D5900602D5204600F040
:101B50002EFF20684069616CC0F38010090700D433
:101B600060B3204600F0EEFE20684069400621D5B3
:101B70002068143050E8001F21F0400140E80012B6
:101B8000002AF5D1E06BA8B16E490165E06BFEF764
:101B900040FF002811D0E06B016D01B0BDE8F040BE
:101BA000084783060FD593060DD52046BDE8F840BB
:101BB00000F0FDBE2046FFF78EFFF8BD2046FFF780
:101BC0008AFF6564F8BD266B2023012E7DD1C606F1
:101BD0007BD5D60679D508684868009048694FF0EB
:101BE0000206400641D5E16B086840680004000C1D
:101BF000E8D0A28D8242E5D9E085C869B0F5807F42
:101C00002DD020680C3050E8001F21F4807140E88E
:101C10000012002AF5D12068143050E8001F21F08E
:101C2000010140E80012002AF5D12068143050E884
:101C3000001F21F0400140E80012002AF5D184F88D
:101C40004230256320680C3050E8001F21F010015D
:101C500040E80012002AF5D1E06BFEF791FE6663C2
:101C6000A08DE18D401A81B22AE0A08DE18D401A4D
:101C700081B2E08D0028A5D00029A3D022680C32C3
:101C800052E8000F20F4907042E80007002FF5D1D1
:101C90002068143050E8002F22F0010240E80027AD
:101CA000002FF5D184F84230256320680C3050E8CD
:101CB000002F22F0100240E80023002BF5D16663CC
:101CC0002046FFF7CFFEF8BDFFE705062BD515062A
:101CD00029D594F841002128F5D1A068B0F5805F9E
:101CE00001D12069B0B1206A411C216221680078CD
:101CF0004860E08C401E0004000CE084E3D12068C2
:101D0000C16821F08001C1602068C16841F04001D4
:101D1000C160D8E7206A0088C0F308004860206AE4
:101D2000801C2062E5E74006CDD55006CBD5CA68B9
:101D3000204622F04002CA6084F8413000F0F4F9F5
:101D4000C1E70000FB27000870B5040004D094F838
:101D50004100002510B106E0012070BD84F840501C
:101D6000204600F023F8242084F841002068C16850
:101D700021F40051C160204600F07AFE206801691C
:101D800021F4904101612068416921F02A014161FB
:101D90002068C16841F40051C1606564202084F866
:101DA000410084F842006563002070BD2DE9F04FCA
:101DB00087B0044614216846FEF74EFA82488149EE
:101DC000D4F800C0804F1438022203230726DFF81E
:101DD000FCE100258C451FD1396841F010013960C4
:101DE000396801F010010591016841F001010160BD
:101DF0000068694600F00100059058028DE8250052
:101E0000CDE903367046FEF79BFF002211462520E0
:101E1000FFF702F9252057E06B49DFF8B481091F6D
:101E20004FF0400B4FF000694FF4806AC44550D129
:101E30000F6847F400370F60096801F4003105911D
:101E4000016841F0010101600068694600F001008D
:101E500005900C208DE82500CDE903367046FEF78D
:101E60006FFF5D4E5B484F463060C6E90195C6E99D
:101E7000035A75614FF48039B561C6E90759D046F8
:101E800030467562FEF7A8FE08B1FEF777FDE663FF
:101E9000B463514E4F4860361830C6E90358756137
:101EA000B561C6E90759756286E881083046FEF7D4
:101EB00093FE08B1FEF762FDA663002211462620BC
:101EC000B463FFF7A9F82620FFF798F807B0BDE83C
:101ED000F08FDFF80881C4454FD10F6847F48027A1
:101EE0000F60096801F480210591016841F0020149
:101EF00001600068694600F0020005904FF4406000
:101F00008DE82500CDE903363548FEF719FF324E3E
:101F10003048C03660383060C6E90195C6E9035ADA
:101F200080157561C6E906504F464FF40039C6E981
:101F30000895D0463046FEF74FFE08B1FEF71EFD6D
:101F4000E663B463274E2348C6E903587561B5615B
:101F5000C6E907593038756286E881083046FEF7D1
:101F60003BFE08B1FEF70AFDA663002211462720BA
:101F7000B463FFF751F82720A6E71B498C45A5D18C
:101F8000396841F020013960396801F0200105917C
:101F9000016841F0040101600068694600F0040036
:101FA0000590C0208DE825000820CDE903300F48BA
:101FB000FEF7C6FE002211464720FFF72DF8472006
:101FC00082E7000000100140443802400000024057
:101FD0000044004088600240080D00200048004096
:101FE00000040240280E00200014014000080240B6
:101FF00090F84230202B01D00220704721B11AB155
:102000000023036300F0BABD01207047704770479A
:102010002DE9F843044690F84100984616460D46CF
:10202000202802D00220BDE8F88385B17EB10020CF
:102030006064212084F84100FEF780FFA684814679
:10204000E684A0682027B0F5805F02D003E001207D
:10205000E9E7206910B12E4600250EE000260CE0CD
:102060008021204600F0D2FDA8B9C6B116F8010BB8
:1020700021684860E08C401EE084E08C4B464FF0C5
:102080000002CDF800800028EAD14FF04001204640
:1020900000F0BCFD40B184F841700320C3E735F87F
:1020A000020BC0F30800E3E784F841700020BAE7B0
:1020B00070B5044690F84100202801D0022070BD80
:1020C00049B342B32162A284E284002060642123E8
:1020D00084F84130A56B114BEB63A56B104B2B645F
:1020E000A56B104BEB64A36B1865256813462A1D7E
:1020F000A06BFEF7DBFD21686FF0400008602068F0
:10210000143050E8001F41F0800140E80012002A1E
:10211000F5D1002070BD012070BD0000F928000835
:102120003B2900080B28000870477047FEE70000B5
:10213000154808B5016841F40011016000680022EB
:1021400000F40010009011460C20FEF765FF0C20F3
:10215000FEF754FF002211460E20FEF75DFF0E2011
:10216000FEF74CFF002211461020FEF755FF10200D
:10217000FEF744FF002211461120FEF74DFFBDE897
:1021800008401120FEF73ABF3038024030B587B022
:1021900014216846FEF760F821480024016841F0E8
:1021A00004010160016801F004010591016841F03A
:1021B00020010160016801F020010591016841F0F2
:1021C00080010160016801F080010591016841F022
:1021D00001010160016801F001010591016841F010
:1021E00002010160016801F002010591016841F0FE
:1021F0000801016000680B4D00F008000590002206
:1022000004212846FEF794FE042000900120CDE929
:102210000104694628460394FEF792FD07B030BDDD
:10222000303802400014024010B58EB000240794EC
:10223000089409940A940B941C2168460C94FEF7A8
:102240000BF82248204901605321C0E9011444F6EB
:102250001F61C0E903148461FFF70EFA08B1FEF7AD
:102260008DFB4FF48050079007A91848FFF752FAEA
:1022700008B1FEF783FB1548FFF762FB08B1FEF7D4
:102280007DFB0B940BA911480C94FFF7ADF908B135
:10229000FEF774FB6020CDE9000402940022694639
:1022A0000A480494FFF7E6FA08B1FEF767FB042238
:1022B00069460648FFF7DEFA08B1FEF75FFB034800
:1022C000FFF796FA0EB010BD00040040580A002037
:1022D00010B58EB000240794089409940A940B94C6
:1022E0001C2168460C94FDF7B7FF2648244901607D
:1022F0005321C0E9011444F61F61C0E9031484614D
:10230000FFF7BAF908B1FEF739FB4FF48050079098
:1023100007A91C48FFF7FEF908B1FEF72FFB194883
:10232000FFF70EFB08B1FEF729FB0B940BA915482C
:102330000C94FFF759F908B1FEF720FB6020CDE9B6
:1023400000040294002269460E480494FFF792FAB2
:1023500008B1FEF713FB042269460A48FFF78AFA20
:1023600008B1FEF70BFB082269460648FFF782FA20
:1023700008B1FEF703FB0348FFF73AFA0EB010BDB1
:1023800000080040A00A00200C4810B50A4901606E
:102390004FF416514160002181600C22C160C0E9F8
:1023A00004128161C161FFF7CFFC002803D0BDE8B2
:1023B0001040FEF7E3BA10BD00100140E80B00200A
:1023C0000C4810B50A4901604FF4165141600021D4
:1023D00081600C22C160C0E904128161C161FFF714
:1023E000B3FC002803D0BDE81040FEF7C7BA10BD0B
:1023F00000440040300C00200C4810B50A49016030
:102400004FF4E1314160002181600C22C160C0E9DC
:1024100004128161C161FFF797FC002803D0BDE879
:102420001040FEF7ABBA10BD00480040780C002009
:102430000C4810B50A4901604FF4E13141600021B8
:1024400081600C22C160C0E904128161C161FFF7A3
:102450007BFC002803D0BDE81040FEF78FBA10BD0A
:1024600000140140C00C0020FEE7FEE770477047F3
:10247000FEF76ABD30B593B030216846FDF7ECFE3B
:1024800014210CA8FDF7E8FE1D480025016841F065
:1024900080510160006800F0805011901948016877
:1024A00041F4804101600068022400F480401190F2
:1024B0000120039010200490009406940820CDE998
:1024C0000750A820CDE9090404200B906846FEF7C8
:1024D000C1FE08B172B6FEE70CA90F2081E83100F9
:1024E0004FF4A0500F904FF48050109005210CA88D
:1024F000FEF7C4FD002801D072B6FEE713B030BD70
:1025000040380240007000400248016841F4700108
:102510000160704788ED00E0F0B50268294C2A4D53
:102520002A4E2B4F2B4B4FF0804CA04209D06045D8
:1025300007D0A84205D0B04203D0B84201D098429B
:1025400004D122F0700E4A6842EA0E02A0421BD06B
:10255000604519D0A84217D0B04215D0B84213D068
:10256000984211D01C4DA8420ED01C4DA8420BD051
:102570001B4DA84208D01B4DA84205D01A4DA842B9
:1025800002D01A4DA84203D122F44075CA682A43EA
:102590004D6922F080022A4302608A68C2620A689A
:1025A0008262A04201D0984201D1096901630121F0
:1025B00041610169C90703D0016921F0010101618D
:1025C000F0BD000000000140000400400008004091
:1025D000000C004000040140004001400044014064
:1025E0000048014000180040001C0040002000404E
:1025F00010B501F01F030121046A99408C43046265
:10260000016A9A401143016210BD10B5846842EA24
:10261000032224F47F440A432243826010BD82686F
:1026200022F070020A4342F0070181607047000007
:10263000F0B5036A026A22F001020262426884690C
:10264000124E24F073050C682C4323F002058B68AE
:102650002B430D4DA84201D0B04205D123F008070D
:10266000CB683B4323F00403A84201D0B04205D11C
:102670004D6922F4407215438A692A43426084619D
:10268000496841630362F0BD00000140000401405D
:10269000F0B5026A036A23F0100303624368846999
:1026A0000D6824F4E64444EA05248D6822F02002F3
:1026B00042EA05120F4D104EA84201D0B04206D199
:1026C000CF6822F0800242EA071222F04002A842BC
:1026D00001D0B04207D14D6923F4406343EA85033A
:1026E0008D6943EA850343608461496881630262BE
:1026F000F0BD00000000014000040140F0B5026A96
:10270000036A23F4807303624368C46922F400728D
:1027100024F073050C68124E2C438D6842EA0522A2
:102720000E4DA84201D0B04206D1CF6822F400621B
:1027300042EA072222F48062A84201D0B04207D1C7
:102740004D6923F4405343EA05138D6943EA0513A9
:102750004360C4614968C1630262F0BD000001408A
:102760000004014030B5046A026A22F48052026219
:102770004268C3690D6823F4E64343EA05238D6884
:1027800024F4005444EA0534084DA84202D0084D10
:10279000A84204D14D6922F4804242EA8512426087
:1027A000C36149680164046230BD0000000001405B
:1027B0000004014010B5036A046A24F001040462B5
:1027C000846924F0F00444EA021423F00A020A4364
:1027D0008461026210BD10B5036A046A24F010041B
:1027E0000462846923F0A00324F4704444EA0232B2
:1027F00043EA01118261016210BD10B5806B0021B6
:10280000C185C184FFF767F910BD70B5846B20687E
:10281000406994F84110C0F3C0100025212904D16B
:1028200018B1E584204600F0B4F82068406994F8B7
:102830004210C0F38010222904D118B1E58520464A
:1028400000F080F8606C40F0100060642046FFF7F4
:1028500042F970BD10B50146806B096809684FF0F8
:102860000002C9052ED4C28501680C3151E8003F31
:1028700023F4807341E80034002CF5D10168143151
:1028800051E8003F23F0010341E80034002CF5D16A
:102890000168143151E8003F23F0400341E800345F
:1028A000002CF5D1202180F84210016B012909D1BB
:1028B00001680C3151E8003F23F0100341E8003477
:1028C000002CF5D14263016B012902D0FFF79EFB7A
:1028D00010BD818DFFF7C6F810BD10B5806B0121CA
:1028E0004163016B012902D0FFF791FB10BD818D7F
:1028F0004908FFF7B7F810BD10B50146806B0968AD
:102900000968C90516D40021C1840168143151E851
:10291000002F22F0800241E80023002BF5D101684E
:102920000C3151E8002F42F0400241E80023002B17
:10293000F5D110BDFFF7F8FB10BD10B5806BFFF7A8
:10294000F4FB10BD01680C3151E8002F22F49072A5
:1029500041E80023002BF5D10168143151E8002F24
:1029600022F0010241E80023002BF5D1016B01297F
:1029700009D101680C3151E8002F22F0100241E822
:102980000023002BF5D1202180F8421000210163A3
:10299000704701680C3151E8002F22F0C00241E875
:1029A0000023002BF5D1202180F84110704708B595
:1029B00090F84210222901D0022008BD82684FF40D
:1029C00080539A4201D1016921B1816A9A421BD098
:1029D0004AB10AE00268816A5268C2F308020A80BA
:1029E000816A891C08E0026972B10268526802F0CB
:1029F0007F020A70816A491C8162C18D491E0904E7
:102A0000090CC18503D01BE002685268F1E7016838
:102A1000CA6822F02002CA600168CA6822F4807283
:102A2000CA6001684A6922F001024A61202180F8E7
:102A3000421000214163026B012A03D0FFF7E6FA3E
:102A4000002008BD016301680C3151E8002F22F01D
:102A5000100241E80023002BF5D101680A68D20674
:102A600002D50A6849680091818DFEF7FBFFE7E710
:102A700070B5044600680169E26821F440511143D1
:102A800001612169A068E269084361691143084353
:102A90002168CA6849F20C639A430243CA602068FD
:102AA0004169A26921F440711143416131492068B3
:102AB000884202D03049884202D1FEF789FB01E00A
:102AC000FEF776FBE2690023192164253226B2F570
:102AD000004F626828D0A0FB0101930F9200FDF720
:102AE00071FB0146B0FBF5F06FF01802504301EBAB
:102AF000800006EB0010B0FBF5F000F0F002B1FB37
:102B0000F5F002EB0012B1FBF5F06FF0180358433B
:102B100001EB800006EB0010B0FBF5F000F00F00B9
:102B200021681044886070BDA0FB010192185B41D0
:102B3000FDF748FB0146B0FBF5F00201B1FBF5F0F3
:102B40006FF01803584301EB800006EBC000B0FBA8
:102B5000F5F000F0F80002EB4002B1FBF5F058434D
:102B600001EB800006EBC000B0FBF5F000F00700C1
:102B7000D6E70000001001400014014038B5816222
:102B800004468285002013466064222284F8422095
:102B9000E56B1B4AEA63E56B1A4A2A64E56B1A4A3D
:102BA000EA64E26B10650A462168E06B091DFEF7D6
:102BB0007DF82068016840680090206948B120686D
:102BC0000C3050E8001F41F4807140E80012002AE8
:102BD000F5D12068143050E8001F41F0010140E8B1
:102BE0000012002AF5D12068143050E8001F41F08F
:102BF000400140E80012002AF5D1002038BD000055
:102C000055280008DB2800080B2800082DE9F843A8
:102C1000984617460D460446089E24E0701C22D0B4
:102C2000FEF78CF9A0EB0800B0421AD8CEB12068AC
:102C3000C168490717D5802D15D0402D13D00168E4
:102C4000C94309070FD40168002540680090204659
:102C5000FFF778FE0820606484F840500120BDE84A
:102C6000F8830320FBE72068006835EA000004D001
:102C70000020B842D2D00020F1E70120F9E700009F
:102C80000148FEF729BF0000E80B00200C4808B5FA
:102C900000680168C943C9060DD401684068009006
:102CA0000748FEF7E0FE0749012002460870064982
:102CB0000348FFF79DF9BDE808400148FEF70CBF47
:102CC000300C0020010000200200002038B5104C1C
:102CD00020680168C943C90614D40168406800909F
:102CE0002046FEF7C0FEE06B006840680949C0F16D
:102CF000FF000870084901200870FF22074920469C
:102D0000FFF776F9BDE838400148FEF7E5BE000060
:102D1000780C00204500002044000020E80A002034
:102D2000104818B4006801684FF00003C943C90691
:102D300005D4016841680C4A0091012111700168B5
:102D400089060BD541680A48084C0288A154521CD8
:102D500091B20180B1F5806F00D3038018BC0148A7
:102D6000FEF7BABEC00C002000000020580600206C
:102D700006000020FEE700000FB4054B10B503A9C4
:102D8000044A029800F01EF910BC5DF814FB000024
:102D900065380008580000200FB47CB50C0009AD60
:102DA00001D0611E00E00021CDE90001064B6A461A
:102DB0002946089800F006F9002C02D0009A00215C
:102DC00011707CBC5DF814FBCB3600087CB50C00A0
:102DD0001D461646014601D0601E00E00020CDE9E8
:102DE0000010064B6A462946304600F0EBF8002CEE
:102DF00002D0009A002111707CBD0000CB36000883
:102E00000907090E002804DB00F1E02080F8001417
:102E1000704700F00F0000F1E02080F8141D7047AB
:102E200002E008C8121F08C1002AFAD17047704793
:102E3000002001E001C1121F002AFBD170470000F1
:102E40002DE9FF5F82B00021DDE90430020DDDF8DD
:102E500040B0034318D044F61050A2F2FF32424370
:102E60001514119801281FD0A5EB0B00401C5FEA38
:102E7000000A4FF000064E4FDFF83891B04650463A
:102E800015D5CAF1000413E0119801244AA30128C2
:102E900001D16FEA0B010298119AC0E90031C0E933
:102EA000024206B0BDE8F09FCBF10000DFE7044628
:102EB0000021404A491842EB0450CDE9001012E0CD
:102EC000E00707D032463B4640464946FDF776FAD2
:102ED0008046894632463B4610461946FDF76EFA53
:102EE00006460F466410002CEAD1DDE90401DDE955
:102EF0000023BAF1000F06DAFDF760FA42464B46AE
:102F0000FDF75CFA05E0FDF7CBFA42464B46FDF7CC
:102F1000C7FA04460E460022284BFDF77BFB03D878
:102F20004FF0FF30014607E00022254B2046314696
:102F3000FDF79DF9FDF72AFC102409E0002C0ADBBF
:102F40000A220023FDF73EF9039B30321A55641E16
:102F500050EA0102F2D1641C039AC4F11103144433
:102F6000119A012A03D0012208430DD10AE0084337
:102F700004D000204FF0110B119072E7A3EB0B056A
:102F80006D1E0DE05B4504DD4FF0000205F101050B
:102F900004E003DA4FF00002A5F10105002AECD0AD
:102FA00002981199C0E90231C0E9004579E70000B3
:102FB000000014400000F03F300000000000F0432B
:102FC0000000E03F2DE9FF4F95B09A46884606463F
:102FD0000025EEE1252877D100242746F94A012172
:102FE000039400E0044316F8013F203B01FA03F08C
:102FF0001042F7D130782A2811D06FF02F033078A3
:10300000A0F13002092A16D8039A44F0020402EB18
:10301000820203EB42021044761C0390EFE758F85B
:10302000042B0392002A03DA504244F40054039024
:1030300044F00204761C30782E2816D116F8010FC1
:1030400044F004042A280DD06FF02F023078A0F14C
:103050003003092B09D807EB870302EB4303C7189A
:10306000761CF3E758F8047B761C30786C280FD078
:1030700006DC4C2817D068280DD06A2814D104E04B
:10308000742810D07A280FD10DE044F400140AE01F
:1030900044F4801401E044F440147278824202D176
:1030A00004F58014761C761C307866280BD013DC6F
:1030B000582877D009DC002875D04528F6D0462856
:1030C000F4D047281AD193E118E0632835D064285A
:1030D00079D0652812D18BE1702873D008DC67287D
:1030E000F1D069286FD06E280DD06F2806D1ACE0E2
:1030F00073282CD0752874D0782853D0524617994D
:1031000090476D1C54E1C4F30250022809D00328F3
:103110000DD0D8F8001004280DD00D6008F1040877
:1031200046E1D8F80010EA17C1E90052F6E7D8F8EE
:1031300000100D80F2E70D70F0E718F8041B8DF811
:10314000001000208DF80100EB46012003E058F844
:1031500004BB4FF0FF3061074FF0000102D40DE0D7
:1031600009F101018946B9420FDA8145F8DB1BF804
:1031700009100029F4D108E009F1010189468142D2
:10318000FADB1BF809100029F6D103985346A0EB8F
:10319000090721463846179A00F080FA284400EBC8
:1031A000090507E044E008E10DE01BF8010B524679
:1031B00017999047B9F10109F7D25346214638468D
:1031C000179AF2E039E00A21C4F302524FF0000BE3
:1031D0000091022A06D058F8040BC117032A09D01F
:1031E0000AE023E008F1070020F00702F2E80201FC
:1031F000904605E000B2C117042A01D140B2C117C0
:10320000002906DA0A460021404261EB02012D2224
:1032100002E0220504D52B228DF80420012203E0D0
:10322000E20701D02022F7E7914657E00A2100E0AB
:1032300010214FF0000B00910BE010214FF0000B1C
:1032400044F004040827009103E008204FF0000B2D
:103250000090C4F30252022A05D058F8040B002152
:10326000032A08D008E008F1070020F00702F2E87E
:103270000201904603E080B2042A00D1C0B24FF0B0
:10328000000922072AD53278702A07D0DDF800C05D
:103290008CF0100C5CEA0B0C05D00EE040228DF88F
:1032A0000420012208E050EA010306D030238DF803
:1032B00004308DF8052002229146009B83F008031C
:1032C00053EA0B030AD150EA010201D1620705D586
:1032D00030228DF804204FF001097F1E3278582AE1
:1032E00004D039A20C920CAA02920BE03BA2F9E79F
:1032F0005B46009AFCF766FF0C9B9B5C029A521E91
:103300000292137050EA0102F2D1029804A9081A3D
:1033100000F1200B600702D524F4803400E001277F
:103320005F4502DDA7EB0B0000E0002000EB0B0186
:10333000009003984944401A0390E00306D4534692
:103340002146179A039800F0A9F90544002706E0E2
:1033500001A85246C05D179990476D1C7F1C4F45D0
:10336000F6DBE0030CD553462146179A039800F08C
:1033700095F9054404E030205246179990476D1C9A
:103380000099481E00900029F5DC08E00298029997
:1033900052460078491C0291179990476D1CBBF169
:1033A0000001ABF1010BF1DC5BE100F065F90544D4
:1033B000761C307800287FF40DAE19B02846BDE8A1
:1033C000F08F0000092801003031323334353637B0
:1033D0003839616263646566000000003031323361
:1033E0003435363738394142434445460000000001
:1033F000600700D4062708F1070020F00700F0E876
:103400000223804603F0004C5FEA0C0001D097A035
:1034100009E0200501D596A005E0E00701D095A0C0
:1034200001E0AFF24C001390307823F000436528A0
:103430000CD006DC452809D046281DD047287FD16E
:103440003BE0662818D067287AD136E00021112F9A
:1034500001DB112000E0781CCDE9000104A90CA8D3
:10346000FFF7EEFCDDE90D010C9A4FF0000B07F1C0
:103470000109109200914EE04FF000400097CDE915
:10348000011004A90CA8FFF7DBFCDDE90D020C9B81
:103490000F994FF0000B91461093009211B9791CCF
:1034A00000EB0109B7EB090003D4C0F1FF3B07F1C2
:1034B0000109A9EB0700019042E0012F00DA012782
:1034C0000021112F01DD112000E03846CDE9000177
:1034D00004A90CA8FFF7B4FCDDE90D010C9A0091DA
:1034E0004FF0000BB946109221070FD4009A4A45BD
:1034F00003DA914601E0A9F10109B9F1010F05DDF7
:10350000109AA9F10101515C3029F4D0B84202DAD5
:1035100010F1040F03DA0121CDE9011010E00028B9
:1035200003DC8344A9EB000102E0411C494500DDB6
:103530008946A0EB0B00401C01904FF00040029028
:10354000200705D40198484502DB4FF0FF30019079
:1035500000208DF84B0002980DF14B07B0F1004FA1
:1035600025D002200C902B200D90029800280CDA18
:10357000404202902D200D9007E00A210298FDF7AD
:1035800061F83031029007F8011D0C99481E0C902B
:103590000029F2DC02980028EFD1791E0D980870FE
:1035A000307800F0200040F0450007F8020D11A827
:1035B000C01BC01D02901398007800B1012000EBE1
:1035C0000901019801EBE071029801440398401A47
:1035D000401E0390E00306D453462146179A0398F1
:1035E00000F05CF805441398007818B1524617991A
:1035F00090476D1CE00323D553462146179A039844
:1036000000F04CF805441BE0BBF1000F07DB00980D
:10361000584504DD1098179910F80B0001E0179930
:1036200030205246904701980BF1010B401E05F1E6
:103630000105019004D12E205246179990476D1C28
:10364000B9F10001A9F10109DEDC05E017F8010B71
:103650005246179990476D1C0299481E0290002906
:10366000F4DC53462146179A03989EE62D0000008D
:103670002B000000200000002DE9F0410446002549
:103680001E461746880404D405E039462020B0477A
:103690006D1C641EF9D52846BDE8F0812DE9F04186
:1036A000044600251E469046C80301D5302700E099
:1036B0002027880404D505E041463846B0476D1CF4
:1036C000641EF9D52846BDE8F0814A68002A06D074
:1036D0000A68531C0B6010704868401E48607047B1
:1036E00010B510EE100AFCF781FF9FED0E1B53EC96
:1036F000112BFCF7D5FE9FED0D1B53EC112BFCF7A6
:103700005DFE9FED0C1B53EC112BFCF7B0FD9FED04
:103710000B1B53EC112BFCF74BFEFCF74EFF80B25A
:1037200010BD0000000000000040654000000000E7
:103730000004A0C00000000000ECA3400000000056
:1037400000008E4010B510EE100AFCF74FFF9FED01
:103750000E1B53EC112BFCF7A3FE9FED0D1B53EC3E
:10376000112BFCF72BFE9FED0C1B53EC112BFCF7E0
:103770007EFD9FED0B1B53EC112BFCF778FDFCF746
:103780001CFF80B210BD000000000000004065403A
:103790000000000000789E400000000000508440BF
:1037A0000000000000E08540DFED110A10B530EEAA
:1037B000200AF2EE0C0A30EE600A10EE100AFCF756
:1037C00015FF9FED0C1B53EC112BFCF769FE9FEDD1
:1037D0000B1B53EC112BFCF7F1FD9FED0A1B53EC77
:1037E000112BFCF744FDFCF7E8FE80B210BD000091
:1037F000000034430000000000806640000000002C
:1038000000409F400000000000607D40F2EE0C0A86
:1038100010B530EE200A10EE100AFCF7E7FE9FED1F
:103820000B1B53EC112BFCF73BFE9FED0A1B53ECDB
:10383000112BFCF7C3FD9FED091B53EC112BFCF77B
:1038400016FDFCF7BAFE80B210BD000000000000BB
:10385000008066400000000000409F400000000023
:1038600000207C4013B54FF6FF73012269460248E1
:10387000FEF7CEFB00981CBDE80B0020F0B50388D6
:10388000002541F221070CE04C5D002683EA042369
:103890005C001B0400D57C40761C2346082EF7D321
:1038A0006D1C9542F0D30380F0BD00002DE9F74F69
:1038B0002DED0C8BCCB0002104463D9190F8081101
:1038C000912910D094F854119FEDFBAB9FEDFCBBF8
:1038D0009FEDFDCB9FEDFE8B92297CD094F8841157
:1038E000812979D05AE3D4F80C0104F58674FCF7E9
:1038F0007DFE07468846606CFCF778FE05460E465E
:10390000206CFCF773FECDE91801E06BFCF76EFE4E
:10391000CDE91601A06BFCF769FECDE91401606BDF
:10392000FCF764FECDE90201E06AFCF75FFECDE939
:103930000001206BFCF75AFECDE91201A06AFCF7EA
:1039400055FECDE91001606AFCF750FECDE90E018D
:10395000206AFCF74BFECDE90C01E069FCF746FE5E
:10396000CDE90A01A069FCF741FECDE908016069D3
:10397000FCF73CFECDE9060194ED040A9FEDD68AE2
:1039800020EE080A10EE100AFCF730FECDE9040123
:1039900094ED030A20EE080A10EE100AFCF726FE4A
:1039A00094ED020A81468A4620EE080A10EE100ABB
:1039B000FCF71CFE0A4620A981E8E001DDE9185663
:1039C000CDE91E56DDE91656CDE91C56DDE9145643
:1039D000CDE91A5601E035E0EFE0DDE90256CDE928
:1039E0001856DDE90056CDE91656DDE91256CDE947
:1039F0001456DDE91056CDE91256DDE90E56CDE933
:103A00001056DDE90C56CDE90E56DDE90A56CDE932
:103A10000C56DDE90856CDE90A56DDE90656CDE932
:103A20000856DDE9045602A981E80506CDE90656E7
:103A300034F8030C0090DDE95901A84A6368FFF7E8
:103A4000ABF9ABE2D4F8500104F5A274FCF7CEFD5B
:103A500007468846A068FCF7C9FD05460E46606823
:103A6000FCF7C4FDCDE912012068FCF7BFFDCDE9EC
:103A70001801606BFCF783FD53EC1A2BFCF79EFCDE
:103A8000CDE91001E06AFCF77AFD53EC1A2BFCF744
:103A900095FCCDE92601206BFCF771FD53EC1A2B48
:103AA000FCF78CFCCDE92401B4F92A00FCF767FD92
:103AB00053EC1B2BFCF782FCCDE90201B4F9280082
:103AC000FCF75DFD53EC1B2BFCF778FCCDE9000106
:103AD000B4F92600FCF753FD53EC1B2BFCF76EFCEE
:103AE000CDE90E01B4F91E00FCF749FD53EC1C2B87
:103AF000FCF764FCCDE90C01B4F91C00FCF73FFDB8
:103B000053EC1C2BFCF75AFCCDE90A01B4F91A005E
:103B1000FCF735FD53EC1C2BFCF750FCCDE90801FC
:103B2000B4F92400FCF72BFD53EC182BFCF746FCF2
:103B3000CDE90601B4F92200FCF721FD53EC182B66
:103B4000FCF73CFC81468A46B4F92000FCF717FDDF
:103B500053EC182BFCF732FC02461EA80B4680E8FB
:103B6000E001DDE91201CDE91C01DDE91801CDE933
:103B70001A01DDE91001CDE91801DDE92601CDE9E1
:103B80001601DDE92401CDE91401DDE90201CDE9E9
:103B90001201DDE90001CDE9100102A880E80C0660
:103BA000A18A94F91300CDE90001B4F81130DDE9E0
:103BB00059014B4AFFF7F0F8F0E1B4F9DC0104F5E4
:103BC000C674FCF7DCFC53EC182BFCF7F7FB07463C
:103BD0008846B4F94E00FCF7D2FC53EC182BFCF7E6
:103BE000EDFB05460E46B4F94C00FCF7C8FC53EC5F
:103BF000182BFCF7E3FBCDE93601B4F94A00FCF7DA
:103C0000BEFC9FED389B53EC192BFCF7D7FBCDE99D
:103C10003401B4F94800FCF7B2FC53EC192BFCF763
:103C2000CDFBCDE93201B4F94600FCF7A8FC53EC1A
:103C3000192BFCF7C3FBCDE93001B4F94300FCF7C5
:103C40009EFC53EC192BFCF7B9FBCDE92E0194F83F
:103C50003D00FCF7A5FC9FED25DB53EC1D2BFCF78D
:103C6000ADFBCDE92C0194F83C00FCF799FC53EC3A
:103C70001D2BFCF7A3FB81468A46A06BFCF77FFC5B
:103C800053EC1A2BFCF79AFBCDE92801206BFCF7CB
:103C900076FC9FED18AB53EC1A2BFCF78FFBCDE9AC
:103CA0002601606BFCF76BFC53EC1A2BFCF786FBD0
:103CB000CDE9240122E00000FCA9F1D24D62503F81
:103CC0005B5CE333D93F9F3FC3F5285CDF55AD3FD5
:103CD000A8AC01A5FCFF733FCDCC1C4128580008BF
:103CE000245700087B14AE47E17A843F9A9999994A
:103CF0009999B93F48AFBC9AF2D77A3EB4F92E00F1
:103D0000FCF73DFC9FEDAAAB53EC1A2BFCF756FBDE
:103D1000CDE92201B4F92C00FCF731FC53EC1A2B4D
:103D2000FCF74CFBCDE92001B4F92A00FCF727FC95
:103D300053EC1A2BFCF742FBCDE91E01B4F9280025
:103D4000FCF71DFC53EC1A2BFCF738FBCDE91C01EA
:103D5000E08CFCF725FC53EC192BFCF72FFBCDE98D
:103D60001A01B4F92200FCF70AFC53EC192BFCF7FA
:103D700025FBCDE91801B4F92400FCF700FC53EC55
:103D8000192BFCF71BFBCDE91601218C4FF47A703F
:103D9000B1FBF0F200FB1212B1FBF0F0CDE9000232
:103DA000B4F91600FCF7EBFBCDE91401B4F91400EB
:103DB000FCF7E5FB53EC1B2BFCF700FBCDE91201F4
:103DC000B4F91200FCF7DBFB53EC1B2BFCF7F6FA03
:103DD000CDE91001B4F91000FCF7D1FB53EC1B2B1B
:103DE000FCF7ECFACDE90E01B4F90E00FCF7C7FBC5
:103DF00053EC182BFCF7E2FACDE90C01B4F90C00F6
:103E0000FCF7BDFB53EC182BFCF7D8FACDE90A01FF
:103E1000B4F90A00FCF7B3FB53EC182BFCF7CEFA0D
:103E2000CDE90801B4F90800FCF7A9FB53EC1C2B01
:103E3000FCF7C4FACDE90601B4F90600FCF79FFBD4
:103E400053EC1C2BFCF7BAFACDE90401B4F90400D9
:103E5000FCF795FB53EC1C2BFCF7B0FA834648A803
:103E60008C4680E8E001DDE93601CDE94601DDE977
:103E70003401CDE94401DDE93201CDE94201DDE95A
:103E80003001CDE94001DDE92E01CDE93E0114F814
:103E9000423F39AD14F8030C14F8012C14F8021C3D
:103EA00085E80F0014F8040C3890DDE92C01CDE909
:103EB0003601DDE92801CDE9349ACDE93201DDE9A9
:103EC0002601CDE93001DDE92401CDE92E01DDE94E
:103ED0002201CDE92C01DDE92001CDE92A01DDE94E
:103EE0001E01CDE92801DDE91C01CDE92601DDE94E
:103EF0001A01CDE92401DDE91801CDE92201DDE94E
:103F00001601CDE9200114F8231C14F8240CDDE976
:103F100000231CAD85E80F0014F9280C18AD14F827
:103F2000253C14F8262C14F8271C85E80F00DDE941
:103F30001401CDE91601DDE91201CDE91401DDE935
:103F40001001CDE91201DDE90E01CDE91001DDE935
:103F50000C01CDE90E01DDE90A01CDE90C01DDE935
:103F60000801CDE90A01DDE90601CDE90801DDE935
:103F70000401CDE904BCCDE9060114F8470C34F87E
:103F8000403C54F8442C34F8461C8DE80F0034F8BB
:103F9000493CDDE95901084AFEF7FEFE002805DC30
:103FA0003D984CB0BDEC0C8BBDE8FE8F3D90F8E722
:103FB0002D431CEBE2361A3F94540008FEB50B4625
:103FC0000468002600F1080164B1621C02606354B9
:103FD000741E062A12D00FDB436803F106039A42CF
:103FE0000ADB13E04A780A704B70D1B25A2903D128
:103FF000A52B01D1022101600020FEBD4389ADF84F
:1040000008304360FA2BE7D9066014E006600546E5
:10401000ADF80860042202A8FFF730FC05F10E019C
:1040200002A86A68FFF72AFCA889BDF80810ADF855
:104030000000884201D02046FEBD284600F00AFF5D
:10404000FEBD00002DED028BFCF786FF4FF4F671EC
:104050004F48FCF701F94F4C00262670FEF70AFA8C
:10406000FEF794F8FEF764F8FEF732F9FEF7A8F9C8
:10407000FEF78AF9FEF7C0F9FEF7DAF9FEF7D4F891
:104080004FF47A773846FCF749FE00214248FDF7A5
:1040900085FC04214048FDF781FC08213E48FDF7DE
:1040A0007DFC00213D48FDF779FC04213B48FDF7EC
:1040B00075FC0122A11C3A48FDF79AFF38480068B8
:1040C000C16841F01001C16036480068C16841F024
:1040D0001001C160FF2234493248FDF789FF33489F
:1040E0000168CA6842F02002CA600068C16841F0F5
:1040F0001001C1602EA0FEF73FFE274D40F2DC50BC
:10410000A0802968401EC86341F28830FCF706FE93
:10411000012204212848FCF70BFF3846FCF7FEFD7E
:104120009FED268AB0EE480A84ED020A84ED038AE8
:10413000FFF73AFB2968486394ED030AFFF766FB33
:1041400029688863B0EE480A84ED040A84ED058A84
:10415000FFF7C6FA114D401E2968486394ED050A21
:10416000FFF7F0FA2968401E88637810FCF7D6FD47
:1041700013A0FEF701FE607820B10648801C00F015
:1041800025F8667020780028F5D001F0D5F8F2E720
:104190006C00002000000020A00A0020580A002027
:1041A000300C0020780C0020E80A0020C00C002011
:1041B0004E6968616F0000000014024000000000BA
:1041C000426567696E21200D0A0000002DE9F04F5D
:1041D0002DED068B83B005460178E24EDFEDE28AD5
:1041E000E24CB1EE048A61292BD1E1A0FEF7C4FDB7
:1041F00094ED020A30EE080AB5EEC00AF1EE10FAAC
:1042000002DDC4ED028A01E084ED020AA068FCF739
:10421000EDF941EC100BDDA053EC102B01F0DAF8B6
:10422000A068FCF7E3F941EC100BE3A053EC102B72
:10423000FEF7A2FD94ED020AFFF7B6FA3168401EC0
:10424000486329787A292BD1E1A0FEF795FD94EDFA
:10425000020AE74930EE480A10EE100A884201D9F6
:104260009FEDE40A84ED020A10EE100AFCF7BEF995
:1042700041EC100BE0A053EC102B01F0ABF8A06860
:10428000FCF7B4F941EC100BE6A053EC102BFEF751
:1042900073FD94ED020AFFF787FA3168401E486308
:1042A000297864292BD1E4A0FEF766FD94ED030A7A
:1042B00030EE480AB5EEC00AF1EE10FA02D2C4EDB3
:1042C000038A01E084ED030AE068FCF78FF941EC12
:1042D000100BE1A053EC102B01F07CF8E068FCF728
:1042E00085F941EC100BE7A053EC102BFEF744FDD1
:1042F00094ED030AFFF78AFA3168401E8863297833
:10430000DFF894939FEDE59A63292AD1E4A0FEF7A4
:1043100033FD94ED030A30EE080A10EE100A48450A
:1043200002DD84ED039A01E084ED030AE068FCF706
:104330005DF941EC100BE2A053EC102B01F04AF8B0
:10434000E068FCF753F941EC100BCEA053EC102BB6
:10435000FEF712FD94ED030AFFF758FA3168401E8C
:1043600088632978732910D1E0A0FEF705FD40F29B
:104370001D61A180E3A001F02DF8A188EAA0FEF75D
:10438000FBFCA0883168401EC8632978782910D1C9
:10439000EFA0FEF7F1FC40F2DC51A180F2A001F0A9
:1043A00019F8A188E0A0FEF7E7FCA0883168401E5C
:1043B000C8632978DFF8D483722928D1F4A0FEF7E6
:1043C000DBFC01220421F748FCF7B2FDB0EE490AFC
:1043D00084ED020AFFF7E8F93168401E4863A088BF
:1043E0003168401EC863B0EE680A84ED040AC4ED6B
:1043F000058AFFF775F9D8F80010401E4646486355
:1044000094ED050AFFF79EF93168401E886328780D
:10441000702804D1E4A0FEF7AFFC00F025FE297857
:10442000DFF88CA3DFF88CB300260127BBEE09AAC6
:10443000F3EE09AAF7EE009A6A2941D1DEA0FEF751
:104440009BFC94ED0A0A30EE290A10EE100AB5EE34
:10445000C00A84ED0A0AF1EE10FA11D2504501D9D2
:1044600084ED0AAA94ED0A0AD4ED060A002350222C
:1044700020EE600A1946BCEEC00A8DED000A10E07D
:10448000584501DDC4ED0AAA94ED0A0AD4ED060AE6
:104490000023502220EE200A0121BCEEC00A8DED3F
:1044A000000ACDE901760120FCF708FAA06AFCF7C2
:1044B0009DF841EC100BC6A053EC102B00F08AFFC6
:1044C00029786C2941D1CCA0FEF756FC94ED0A0A5C
:1044D00030EE690A10EE100AB5EEC00A84ED0A0A41
:1044E000F1EE10FA11D2504501D984ED0AAA94EDEB
:1044F0000A0AD4ED060A0023502220EE600A19466B
:10450000BCEEC00A8DED000A10E0584501DDC4ED97
:104510000AAA94ED0A0AD4ED060A0023502220EEDE
:10452000200A0121BCEEC00A8DED000ACDE901761A
:104530000120FCF7C3F9A06AFCF758F841EC100B16
:10454000B3A053EC102B00F045FF2978DFF8E8A268
:104550009FEDBAAADFF8E8B2DFEDBAAA692900D167
:1045600072E1B3E1A00A002000000000000000207A
:104570004F726465723A20256321204C6566742071
:1045800077696E67206F70656E21200053544D333C
:10459000323A204F70656E206C6566742077696EC4
:1045A0006721206C65667420646567203D20252E98
:1045B00031660D0A00000000546865206465675F7D
:1045C0006C20697320252E3166210D0A0000000041
:1045D0004F726465723A20256321204C6566742011
:1045E00077696E6720636C6F73652120000000009F
:1045F0000000B4C20000B4C253544D33323A2043D9
:104600006C6F7365206C6566742077696E67212016
:104610006C65667420646567203D20252E31660D2B
:104620000A000000546865206465675F6C20697348
:1046300020252E3166210A004F726465723A2025CA
:1046400063212052696768742077696E67206F70F4
:10465000656E21200000000053544D33323A204F44
:1046600070656E2052696768742077696E672120D3
:10467000526967687420646567203D20252E316685
:104680000D0A0000546865206465675F72206973D5
:1046900020252E3166210A000000B4420000B442F9
:1046A0004F726465723A20256321207269676874CD
:1046B0002077696E6720636C6F73652120000000AE
:1046C00053544D33323A20436C6F736520526967FF
:1046D00068742077696E6721205269676874206466
:1046E0006567203D20252E31660D0A004F726465F6
:1046F000723A20256321205370656564207570210E
:104700002000000053544D33323A205370656564E5
:10471000207570212073706565642070776D203D71
:104720002025750D0A0000005468652073706565CA
:10473000642069732025752120546865203020731A
:104740007065656420697320313530302E200A0091
:104750004F726465723A2025632120536C6F772075
:10476000646F776E2120000053544D33323A20534A
:104770007065656420646F776E2120737065656471
:104780002070776D203D2025750D0A00580A002005
:104790004F726465723A2025632120526561647905
:1047A00021000000001402407374657030000000A6
:1047B0000000C8C10000C8414F726465723A2025EC
:1047C0006321204C65667420726F77210000000021
:1047D00053544D33323A204C65667420726F772102
:1047E000204E6F77207370696E203D20252E316634
:1047F000206465670D0A00004F726465723A2025D7
:10480000632120526967687420726F77210000006D
:1048100053544D33323A20526967687420726F776F
:1048200021204E6F77207370696E203D20252E3138
:1048300066206465670D0A0000005CC200005CC26F
:1048400000005C4200005C42E4A0FEF795FA94EDA3
:104850000B0A30EE080A10EE100AB5EEC00A84ED1D
:104860000B0AF1EE10FA11D2504501D984ED0BAAD2
:1048700094ED0B0AD4ED090A0023642220EE600AAD
:104880000121BCEEC00A8DED000A10E0584501DDA3
:10489000C4ED0BAA94ED0B0AD4ED090A002364229F
:1048A00020EE200A1946BCEEC00A8DED000ACDE9C3
:1048B00001760220FCF702F8E06AFBF797FE41EC74
:1048C000100BCCA053EC102B00F084FD29786B2941
:1048D00041D1D3A0FEF750FA94ED0B0A30EE480A0E
:1048E00010EE100AB5EEC00A84ED0B0AF1EE10FAD4
:1048F00011D2504501D984ED0BAA94ED0B0AD4EDE9
:10490000090A0023642220EE600A0121BCEEC00ADD
:104910008DED000A10E0584501DDC4ED0BAA94EDC1
:104920000B0AD4ED090A0023642220EE200A19465E
:10493000BCEEC00A8DED000ACDE901760220FBF73E
:10494000BDFFE06AFBF752FE41EC100BBAA053EC3E
:10495000102B00F03FFD2978DFF804A39FEDC1AADA
:104960004FF4FA7B792936D1BFA0FEF705FA94ED12
:104970000C0A30EE290A84ED0C0AB5EEC00AF1EEFD
:1049800010FA06D2C4ED0C8A94ED080A28EE800ACB
:104990000BE010EE100A504501DD84ED0CAA94EDF9
:1049A0000C0AD4ED080A20EE200A00235A46012101
:1049B000BCEEC00A03208DED000ACDE90176FBF7BD
:1049C0007DFF206BFBF712FE41EC100BACA053EC0B
:1049D000102B00F0FFFC2978682936D1B0A0FEF733
:1049E000CBF994ED0C0A30EE690A84ED0C0AB5EEB1
:1049F000C00AF1EE10FA06D2C4ED0C8A94ED080A52
:104A000028EE800A0BE010EE100A504501DD84ED1F
:104A10000CAA94ED0C0AD4ED080A20EE200A00231B
:104A20005A460121BCEEC00A03208DED000ACDE9F3
:104A30000176FBF743FF206BFBF7D8FD41EC100B31
:104A40009DA053EC102B00F0C5FC297866292BD1D2
:104A5000A1A0FEF791F994ED040A30EE080A10EED9
:104A6000100A484502DD84ED049A01E084ED040A51
:104A70002069FBF7BBFD41EC100BA0A053EC102B01
:104A8000FEF77AF994ED040AFEF72AFED8F8001032
:104A9000401E48632069FBF7A9FD41EC100B9DA067
:104AA00053EC102B00F096FC2978A54EDFEDA58A7B
:104AB00076292BD1A4A0FEF75FF994ED040A30EE1D
:104AC000480A10EE100AB04202D9C4ED048A01E08F
:104AD00084ED040A2069FBF789FD41EC100B87A0E7
:104AE00053EC102BFEF748F994ED040AFEF7F8FD9D
:104AF000D8F80010401E48632069FBF777FD41ECB1
:104B0000100B9AA053EC102B00F064FC2978672955
:104B10002BD1A1A0FEF730F994ED050A30EE080A7A
:104B200010EE100A484502DD84ED059A01E084ED9F
:104B3000050A6069FBF75AFD41EC100B9FA053EC8E
:104B4000102BFEF719F994ED050AFEF7FBFDD8F8D6
:104B50000010401E88636069FBF748FD41EC100BB4
:104B60009CA053EC102B00F035FC2978622930D141
:104B7000A3A0FEF701F994ED050A30EE480A10EE05
:104B8000100AB04202D9C4ED058A01E084ED050A9D
:104B90006069FBF72BFD41EC100B88A053EC102B48
:104BA000FEF7EAF894ED050AFEF7CCFDD8F8001000
:104BB000401E88636069FBF719FD03B041EC100BE0
:104BC000BDEC068B53EC102B96A0BDE8F04F00F027
:104BD00001BC03B0BDEC068BBDE8F08F4F7264657D
:104BE000723A2025632120486967682070697463E0
:104BF0006821000053544D33323A204869676820D9
:104C0000706974636821205472616E7320706F73D1
:104C1000203D20252E3166206D6D0D0A000000001C
:104C20004F726465723A20256321204C6F772070A3
:104C3000697463682100000053544D33323A204CAC
:104C40006F7720706974636821205472616E7320DD
:104C5000706F73203D20252E3166206D6D0D0A008A
:104C60000000C8420000C8424F726465723A2025B5
:104C70006321206472696E6B207761746572210014
:104C800053544D33323A204472696E6B2120776160
:104C9000746572203D20252E31660D0A000000004B
:104CA0004F726465723A2025632120647261696ED7
:104CB000616765210000000053544D33323A2044AF
:104CC0007261696E61676521207761746572203D4C
:104CD00020252E31660D0A004F726465723A202538
:104CE0006321204C6566742077696E67206269676E
:104CF00067657220414F4121200000005468652003
:104D0000616F615F6465675F6C20697320252E3178
:104D100066210A0053544D33323A20426967676571
:104D200072206C65667420414F412120616F615F84
:104D30006465675F6C203D20252E31660D0A0000FA
:104D40000000A0C20000A0C24F726465723A202524
:104D50006321204C6566742077696E6720736D61EE
:104D60006C6C657220414F412120000053544D333B
:104D7000323A20536D616C6C6572206C65667420EC
:104D8000414F412120616F615F6465675F6C203D29
:104D900020252E31660D0A004F726465723A202577
:104DA00063212052696768742077696E67206269A1
:104DB0006767657220414F412120000054686520DB
:104DC000616F615F6465675F7220697320252E31B2
:104DD00066210A0053544D33323A204269676765B1
:104DE0007220526967687420414F412120616F61D0
:104DF0005F6465675F72203D20252E31660D0A00D5
:104E00004F726465723A2025632120726967687465
:104E10002077696E6720736D616C6C657220414FFD
:104E20004121200053544D33323A20536D616C6C54
:104E3000657220526967687420414F412120616F7B
:104E4000615F6465675F72203D20252E31660D0A23
:104E5000000000002DE9F04104462DED028B0025F5
:104E600084F8085184F8845100F10E0680F85451FA
:104E7000B2EE048A91271FE0705DB0284AD00EDCA4
:104E800092287DD006DC81287BD090281CD09128E8
:104E900011D1CCE0A02819D0A1280CD116E0D0283F
:104EA00070D004DCB12835D0C02804D154E0D1281A
:104EB00069D0F02868D06D1C6068A842DCDCBDECCD
:104EC000028B0120BDE8F081AD1CF5E7701984F874
:104ED000087130F9011F00EE101AF8EEC00A9FEDBC
:104EE000600A80EE801A84ED451AB0F9021000EED7
:104EF000901AF8EEE00A80EE801A84ED461AB0F9B6
:104F0000040000EE900AF8EEE00A80EE801A84EDCC
:104F1000471A6CE0701984F8087130F9011F00EE2F
:104F2000101AB8EEC00AC0EE080AC4ED480AB0F97B
:104F3000021000EE101AB8EEC00AC0EE080AC4ED66
:104F4000490AB0F9040000EE100AB8EEC00AC0EE3B
:104F5000080AC4ED4A0A4AE0701984F8087130F969
:104F6000011F00EE101AB8EEC00AC0EE080AC4ED28
:104F70004B0AB0F9021000EE101AB8EEC00A04E0B5
:104F800065E05CE010E034E048E0C0EE080AC4ED03
:104F90004C0AB0F9040000EE100AB8EEC00AC0EEE8
:104FA000080AC4ED4D0A22E0701984F8087130F93E
:104FB000011F00EE101AF8EEC00A9FED2A0A80EEDB
:104FC000801A84ED4F1AB0F9021000EE901AF8EE34
:104FD000E00A80EE801A84ED4E1AB0F9040000EE6B
:104FE000100AB8EEC00AC0EE080AC4ED500AED1D62
:104FF00062E7701984F80871D0F80110C4F8441100
:10500000D0F80510C4F84811D0F80910C4F84C11B4
:10501000D0F80D001135C4F850014DE7701984F82F
:105020000871D0F801006D1DC4F80C0144E7711936
:105030004C2204F58470FBF7F6F84C353CE7711907
:10504000682204F5C270FBF7EEF8683534E7711991
:10505000302204F5AA70FBF7E6F830352CE70000A3
:1050600000007A440000C8422DE9F0432DED028B88
:1050700085B08CA0FDF780FE0A210120FBF740FCE3
:105080008A4E30780028FCD04FF0000886F8008067
:105090004FF47A794846FBF741FE854D2878854FD5
:1050A0009FED858ADFED858A854C012821D16878BE
:1050B00036281ED1387808281BD1A879E97840EA2B
:1050C000016029796A79090441EA0221084300EE66
:1050D000100AB8EE400A84ED0D0A20EE080A20EE10
:1050E000280A84ED0E0AA87818B1B1EE400A84EDC2
:1050F0000E0A94ED0E0AD4ED070A94ED061A60EE3E
:10510000200A80EE810A10EE100AFBF76FFA41ECDC
:10511000100B6CA053EC102BFDF72EFE0A21022081
:10512000FBF7EEFB30780028FCD086F8008048467C
:10513000FBF7F4FD2878022821D1687836281ED1A3
:10514000387808281BD1A879E97840EA01602979E4
:105150006A79090441EA0221084300EE100AB8EE18
:10516000400A84ED0D0A20EE080A20EE280A84ED9C
:105170000F0AA87818B1B1EE400A84ED0F0A94ED39
:105180000F0AD4ED070A94ED091A60EE200A80EEAA
:10519000810A10EE100AFBF729FA41EC100B53A01C
:1051A00053EC102BFDF7E8FD0A210320FBF7A8FBC9
:1051B00030780028FCD086F800804846FBF7AEFD2A
:1051C0002878032821D1687836281ED13878082815
:1051D0001BD1A879E97840EA016029796A79090444
:1051E00041EA0221084300EE100AB8EE400A84EDBD
:1051F0000D0A20EE080A20EE280A84ED100AA8788D
:1052000018B1B1EE400A84ED100A94ED100AD4ED05
:10521000070A94ED081A60EE200A80EE810A10EE6B
:10522000100AFBF7E3F941EC100B39A053EC102BFB
:10523000FDF7A2FD94ED100A94ED078A94ED081A8B
:1052400060EE080A80EE810A10EE100AFBF7CEF934
:1052500094ED0F0A94ED091A074660EE080A884695
:1052600080EE810A10EE100AFBF7C0F994ED0E0AE9
:1052700094ED061A054660EE080A0E4680EE810A95
:1052800010EE100AFBF7B2F98DE8E00141EC100BCB
:10529000284853EC102B00F09DF805B0BDEC028BB4
:1052A000BDE8F08373746570310000004400002095
:1052B000E80A0020450000200000B44300008037C9
:1052C0000000002053746570706572312C2053709B
:1052D000696E204375725F506F73203D20252E3319
:1052E0006620646567200D0A000000005374657035
:1052F000706572322C205472616E73204375725F38
:10530000506F73203D20252E3366206D6D0D0A00F1
:1053100053746570706572332C20776174657220E8
:105320004375725F506F73203D20252E3366206DCC
:105330006C0D0A00285400082DE9FC471A4F3878F4
:1053400000282FD04FF0000887F80080444624E062
:105350001648015DA0F2EC50FEF730FED8B11449BA
:105360004FF48062A1F5F670FEF7A0FADFF84490E2
:10537000D9F83C01FBF73AF905460E46D9F8380151
:10538000FBF734F941EC100BCDE9005653EC102B30
:1053900009A0FDF7F1FC641CA4B2F8888442D7D3BD
:1053A000A7F80680BDE8FC87000000205806002012
:1053B000580200206C000020726F6C6C3A20252E81
:1053C00033662C2070697463683A20252E33660D8D
:1053D0000A0000000FB4802100B5A1B023AB6846DD
:1053E000229AFDF7F3FC002809DD802800DD8020EB
:1053F00082B24FF47A7369460248FCF709FE21B085
:105400005DF814FB300C0020000610160006101684
:105410000000000000000000010203040607080964
:10542000000000000102030453746570706572315E
:105430002C205370696E204375725F506F73203D4E
:1054400020252E3366206465672E205374657070A6
:105450006572322C205472616E73204375725F50F6
:105460006F73203D20252E3366206D6D2E205374E2
:10547000657070657220332C2077617465722043EB
:1054800075725F506F73203D20252E3366206D6C42
:105490000D0A00007B0A20202274797065223A20D0
:1054A0002248493831222C0A2020227374617475F5
:1054B00073223A2025642C0A202022696E735F73C0
:1054C0007461747573223A2025642C0A20202267A7
:1054D0007073745F776E223A2025642C0A20202294
:1054E000677073745F746F77223A2025642C0A20EA
:1054F00020227070735F73796E635F7374616D7077
:10550000223A2025642C0A202022677972223A2030
:105510005B252E33662C20252E33662C20252E333A
:10552000665D2C0A202022616363223A205B252ECF
:1055300033662C20252E33662C20252E33665D2CD9
:105540000A2020226D6167223A205B252E33662CCB
:1055500020252E33662C20252E33665D2C0A202034
:10556000226169725F7072657373757265223A2089
:10557000252E31662C0A20202274656D70657261BB
:1055800074757265223A2025642C0A2020227574D5
:1055900063223A20223230253032642D25303264A5
:1055A0002D2530326420253032643A253032643A79
:1055B000253032642E25303364222C0A20202270BC
:1055C00069746368223A20252E32662C0A20202234
:1055D000726F6C6C223A20252E32662C0A20202213
:1055E000796177223A20252E32662C0A20202271FA
:1055F000756174223A205B252E33662C20252E33CC
:10560000662C20252E33662C20252E33665D2C0A31
:10561000202022696E735F6C6174223A20252E3738
:10562000662C0A202022696E735F6C6F6E223A200E
:10563000252E37662C0A202022696E735F6D736CED
:10564000223A20252E32662C0A20202270646F70A8
:10565000223A20252E31662C0A20202268646F70A1
:10566000223A20252E31662C0A202022736F6C717D
:105670005F706F73223A2025642C0A2020226E76F8
:105680005F706F73223A2025642C0A202022736FEA
:105690006C715F68656164696E67223A2025642CCD
:1056A0000A2020226E765F68656164696E67223A1F
:1056B0002025642C0A202022646966665F61676584
:1056C000223A2025642C0A202022756E64756C61B4
:1056D00074696F6E223A20252E32662C0A20202211
:1056E00076656C5F656E75223A205B252E32662CDE
:1056F00020252E32662C20252E32665D2C0A202095
:10570000226163635F656E75223A205B252E3266E7
:105710002C20252E32662C20252E32665D2C0A7D0B
:105720000A0000007B0A20202274797065223A204A
:105730002248493932222C0A202022737461747560
:1057400073223A2025642C0A20202274656D70652E
:10575000726174757265223A2025642C0A20202219
:105760007070735F7070735F73796E635F73746171
:105770006D70223A2025642C0A2020226163632266
:105780003A205B252E33662C20252E33662C2025CF
:105790002E33665D2C0A202022677972223A205B24
:1057A000252E33662C20252E33662C20252E33669D
:1057B0005D2C0A2020226D6167223A205B252E3362
:1057C000662C20252E33662C20252E33665D2C0A70
:1057D0002020227069746368223A20252E32662CBC
:1057E0000A202022726F6C6C223A20252E32662C01
:1057F0000A202022796177223A20252E32660A205B
:10580000202271756174223A205B252E33662C208C
:10581000252E33662C20252E33662C20252E33662C
:105820005D2C0A7D0A0000007B0A2020227479701A
:1058300065223A202248493931222C0A202022733D
:10584000797374656D5F74696D65223A2025642CE7
:105850000A2020227070735F73796E635F737461C6
:105860006D70223A2025642C0A2020226163632275
:105870003A205B252E33662C20252E33662C2025DE
:105880002E33665D2C0A202022677972223A205B33
:10589000252E33662C20252E33662C20252E3366AC
:1058A0005D2C0A2020226D6167223A205B252E3371
:1058B000662C20252E33662C20252E33665D2C0A7F
:1058C0002020227069746368223A20252E32662CCB
:1058D0000A202022726F6C6C223A20252E32662C10
:1058E0000A202022796177223A20252E32662C0A5E
:1058F00020202271756174223A205B252E33662C9C
:1059000020252E33662C20252E33662C20252E3381
:10591000665D2C0A2020226169725F707265737364
:10592000757265223A20252E31660A7D0A00000034
:1059300050590008000000205C000000202E0008E4
:10594000AC5900085C0000202C120000302E00082A
:1059500000000000DC0500000000204100002041A4
:105960000000000000000000F8B12A43E4380E41B6
:105970002A06904600004844000000000000000095
:105980000000000000000000000000000000000017
:1059900000000000000000000100000010000000F6
:0C59A000000000000024F40000000000E3
:040000050800018965
:00000001FF
